{
  "contractName": "KennelPedigrees",
  "abi": [
    {
      "constant": true,
      "inputs": [],
      "name": "contractOwner",
      "outputs": [
        {
          "name": "",
          "type": "address"
        }
      ],
      "payable": false,
      "stateMutability": "view",
      "type": "function"
    },
    {
      "inputs": [],
      "payable": false,
      "stateMutability": "nonpayable",
      "type": "constructor"
    },
    {
      "anonymous": false,
      "inputs": [
        {
          "indexed": false,
          "name": "owner",
          "type": "address"
        },
        {
          "indexed": false,
          "name": "to",
          "type": "address"
        },
        {
          "indexed": false,
          "name": "tokenId",
          "type": "uint256"
        }
      ],
      "name": "Approval",
      "type": "event"
    },
    {
      "anonymous": false,
      "inputs": [
        {
          "indexed": true,
          "name": "_from",
          "type": "address"
        },
        {
          "indexed": true,
          "name": "_to",
          "type": "address"
        },
        {
          "indexed": false,
          "name": "_tokenId",
          "type": "uint256"
        }
      ],
      "name": "Transfer",
      "type": "event"
    },
    {
      "constant": false,
      "inputs": [
        {
          "name": "dogId",
          "type": "uint256"
        },
        {
          "name": "price",
          "type": "uint256"
        }
      ],
      "name": "setDogPrice",
      "outputs": [],
      "payable": false,
      "stateMutability": "nonpayable",
      "type": "function"
    },
    {
      "constant": false,
      "inputs": [
        {
          "name": "dogId",
          "type": "uint256"
        },
        {
          "name": "onSale",
          "type": "bool"
        }
      ],
      "name": "setDogOnSale",
      "outputs": [],
      "payable": false,
      "stateMutability": "nonpayable",
      "type": "function"
    },
    {
      "constant": false,
      "inputs": [
        {
          "name": "dogId",
          "type": "uint256"
        }
      ],
      "name": "buyDog",
      "outputs": [],
      "payable": true,
      "stateMutability": "payable",
      "type": "function"
    },
    {
      "constant": false,
      "inputs": [
        {
          "name": "kennelAddress",
          "type": "address"
        },
        {
          "name": "name",
          "type": "string"
        },
        {
          "name": "id",
          "type": "string"
        }
      ],
      "name": "addKennel",
      "outputs": [
        {
          "name": "",
          "type": "bool"
        }
      ],
      "payable": false,
      "stateMutability": "nonpayable",
      "type": "function"
    },
    {
      "constant": false,
      "inputs": [
        {
          "name": "dogId",
          "type": "string"
        },
        {
          "name": "breed",
          "type": "string"
        },
        {
          "name": "name",
          "type": "string"
        },
        {
          "name": "fatherId",
          "type": "uint256"
        },
        {
          "name": "motherId",
          "type": "uint256"
        }
      ],
      "name": "addDog",
      "outputs": [
        {
          "name": "",
          "type": "bool"
        }
      ],
      "payable": false,
      "stateMutability": "nonpayable",
      "type": "function"
    },
    {
      "constant": true,
      "inputs": [
        {
          "name": "kennelId",
          "type": "string"
        },
        {
          "name": "dogId",
          "type": "string"
        }
      ],
      "name": "searchDog",
      "outputs": [
        {
          "name": "",
          "type": "uint256"
        },
        {
          "name": "",
          "type": "string"
        },
        {
          "name": "",
          "type": "string"
        },
        {
          "name": "",
          "type": "uint256"
        },
        {
          "name": "",
          "type": "uint256"
        }
      ],
      "payable": false,
      "stateMutability": "view",
      "type": "function"
    },
    {
      "constant": true,
      "inputs": [
        {
          "name": "_dogId",
          "type": "uint256"
        }
      ],
      "name": "ownerOf",
      "outputs": [
        {
          "name": "",
          "type": "address"
        }
      ],
      "payable": false,
      "stateMutability": "view",
      "type": "function"
    },
    {
      "constant": false,
      "inputs": [
        {
          "name": "_to",
          "type": "address"
        },
        {
          "name": "_dogId",
          "type": "uint256"
        }
      ],
      "name": "approve",
      "outputs": [],
      "payable": false,
      "stateMutability": "nonpayable",
      "type": "function"
    },
    {
      "constant": false,
      "inputs": [
        {
          "name": "_dogId",
          "type": "uint256"
        }
      ],
      "name": "takeOwnership",
      "outputs": [],
      "payable": false,
      "stateMutability": "nonpayable",
      "type": "function"
    },
    {
      "constant": true,
      "inputs": [
        {
          "name": "_to",
          "type": "address"
        },
        {
          "name": "_tokenId",
          "type": "uint256"
        }
      ],
      "name": "transfer",
      "outputs": [],
      "payable": false,
      "stateMutability": "view",
      "type": "function"
    }
  ],
  "bytecode": "0x608060405234801561001057600080fd5b5033600360006101000a81548173ffffffffffffffffffffffffffffffffffffffff021916908373ffffffffffffffffffffffffffffffffffffffff160217905550612120806100616000396000f3006080604052600436106100af576000357c0100000000000000000000000000000000000000000000000000000000900463ffffffff16806308eef9ab146100b4578063095ea7b31461019b578063432f2cd7146101e85780636352211e146103095780637c9153ac1461037657806381517396146103ad578063827727e0146103e6578063a9059cbb14610406578063b2e6ceeb14610453578063ce606ee014610480578063dddd8c34146104d7575b600080fd5b3480156100c057600080fd5b50610181600480360381019080803573ffffffffffffffffffffffffffffffffffffffff169060200190929190803590602001908201803590602001908080601f0160208091040260200160405190810160405280939291908181526020018383808284378201915050505050509192919290803590602001908201803590602001908080601f0160208091040260200160405190810160405280939291908181526020018383808284378201915050505050509192919290505050610680565b604051808215151515815260200191505060405180910390f35b3480156101a757600080fd5b506101e6600480360381019080803573ffffffffffffffffffffffffffffffffffffffff16906020019092919080359060200190929190505050610864565b005b3480156101f457600080fd5b506102ef600480360381019080803590602001908201803590602001908080601f0160208091040260200160405190810160405280939291908181526020018383808284378201915050505050509192919290803590602001908201803590602001908080601f0160208091040260200160405190810160405280939291908181526020018383808284378201915050505050509192919290803590602001908201803590602001908080601f01602080910402602001604051908101604052809392919081815260200183838082843782019150505050505091929192908035906020019092919080359060200190929190505050610b2d565b604051808215151515815260200191505060405180910390f35b34801561031557600080fd5b506103346004803603810190808035906020019092919050505061124b565b604051808273ffffffffffffffffffffffffffffffffffffffff1673ffffffffffffffffffffffffffffffffffffffff16815260200191505060405180910390f35b34801561038257600080fd5b506103ab60048036038101908080359060200190929190803590602001909291905050506112ba565b005b3480156103b957600080fd5b506103e46004803603810190808035906020019092919080351515906020019092919050505061134b565b005b610404600480360381019080803590602001909291905050506113ef565b005b34801561041257600080fd5b50610451600480360381019080803573ffffffffffffffffffffffffffffffffffffffff16906020019092919080359060200190929190505050611691565b005b34801561045f57600080fd5b5061047e6004803603810190808035906020019092919050505061172c565b005b34801561048c57600080fd5b506104956119dc565b604051808273ffffffffffffffffffffffffffffffffffffffff1673ffffffffffffffffffffffffffffffffffffffff16815260200191505060405180910390f35b3480156104e357600080fd5b50610584600480360381019080803590602001908201803590602001908080601f0160208091040260200160405190810160405280939291908181526020018383808284378201915050505050509192919290803590602001908201803590602001908080601f0160208091040260200160405190810160405280939291908181526020018383808284378201915050505050509192919290505050611a02565b604051808681526020018060200180602001858152602001848152602001838103835287818151815260200191508051906020019080838360005b838110156105da5780820151818401526020810190506105bf565b50505050905090810190601f1680156106075780820380516001836020036101000a031916815260200191505b50838103825286818151815260200191508051906020019080838360005b83811015610640578082015181840152602081019050610625565b50505050905090810190601f16801561066d5780820380516001836020036101000a031916815260200191505b5097505050505050505060405180910390f35b6000600360009054906101000a900473ffffffffffffffffffffffffffffffffffffffff1673ffffffffffffffffffffffffffffffffffffffff163373ffffffffffffffffffffffffffffffffffffffff161415156106de57600080fd5b6000808573ffffffffffffffffffffffffffffffffffffffff1673ffffffffffffffffffffffffffffffffffffffff16815260200190815260200160002060030160009054906101000a900460ff161561073b576000905061085d565b6080604051908101604052808573ffffffffffffffffffffffffffffffffffffffff168152602001848152602001838152602001600115158152506000808673ffffffffffffffffffffffffffffffffffffffff1673ffffffffffffffffffffffffffffffffffffffff16815260200190815260200160002060008201518160000160006101000a81548173ffffffffffffffffffffffffffffffffffffffff021916908373ffffffffffffffffffffffffffffffffffffffff1602179055506020820151816001019080519060200190610817929190611f8d565b506040820151816002019080519060200190610834929190611f8d565b5060608201518160030160006101000a81548160ff021916908315150217905550905050600190505b9392505050565b600061086f8261124b565b90508073ffffffffffffffffffffffffffffffffffffffff163373ffffffffffffffffffffffffffffffffffffffff161415156108ab57600080fd5b6001600083815260200190815260200160002060070160019054906101000a900460ff1615156108da57600080fd5b8273ffffffffffffffffffffffffffffffffffffffff163373ffffffffffffffffffffffffffffffffffffffff161415151561091557600080fd5b600073ffffffffffffffffffffffffffffffffffffffff168373ffffffffffffffffffffffffffffffffffffffff16141515610a2957806002600084815260200190815260200160002060000160006101000a81548173ffffffffffffffffffffffffffffffffffffffff021916908373ffffffffffffffffffffffffffffffffffffffff160217905550826002600084815260200190815260200160002060010160006101000a81548173ffffffffffffffffffffffffffffffffffffffff021916908373ffffffffffffffffffffffffffffffffffffffff16021790555060016002600084815260200190815260200160002060010160146101000a81548160ff021916908315150217905550610a88565b6002600083815260200190815260200160002060010160149054906101000a900460ff161515610a5857610b28565b60006002600084815260200190815260200160002060010160146101000a81548160ff0219169083151502179055505b7f8c5be1e5ebec7d5bd14f71427d1e84f3dd0314c0f7b2291e5b200ac8c7c3b925818484604051808473ffffffffffffffffffffffffffffffffffffffff1673ffffffffffffffffffffffffffffffffffffffff1681526020018373ffffffffffffffffffffffffffffffffffffffff1673ffffffffffffffffffffffffffffffffffffffff168152602001828152602001935050505060405180910390a15b505050565b6000610b3761200d565b6060806000610b4461204e565b610b4c61204e565b6000803373ffffffffffffffffffffffffffffffffffffffff1673ffffffffffffffffffffffffffffffffffffffff16815260200190815260200160002060030160009054906101000a900460ff161515610ba657600080fd5b6000803373ffffffffffffffffffffffffffffffffffffffff1673ffffffffffffffffffffffffffffffffffffffff168152602001908152602001600020608060405190810160405290816000820160009054906101000a900473ffffffffffffffffffffffffffffffffffffffff1673ffffffffffffffffffffffffffffffffffffffff1673ffffffffffffffffffffffffffffffffffffffff168152602001600182018054600181600116156101000203166002900480601f016020809104026020016040519081016040528092919081815260200182805460018160011615610100020316600290048015610cdf5780601f10610cb457610100808354040283529160200191610cdf565b820191906000526020600020905b815481529060010190602001808311610cc257829003601f168201915b50505050508152602001600282018054600181600116156101000203166002900480601f016020809104026020016040519081016040528092919081815260200182805460018160011615610100020316600290048015610d815780601f10610d5657610100808354040283529160200191610d81565b820191906000526020600020905b815481529060010190602001808311610d6457829003601f168201915b505050505081526020016003820160009054906101000a900460ff161515151581525050955085604001519450610dd1610dba8d611d71565b610dc387611d71565b611d9f90919063ffffffff16565b9350836040516020018082805190602001908083835b602083101515610e0c5780518252602082019150602081019050602083039250610de7565b6001836020036101000a0380198251168184511680821785525050505050509050019150506040516020818303038152906040526040518082805190602001908083835b602083101515610e755780518252602082019150602081019050602083039250610e50565b6001836020036101000a0380198251168184511680821785525050505050509050019150506040518091039020600190049250600160008481526020019081526020016000206101206040519081016040529081600082015481526020016001820160009054906101000a900473ffffffffffffffffffffffffffffffffffffffff1673ffffffffffffffffffffffffffffffffffffffff1673ffffffffffffffffffffffffffffffffffffffff168152602001600282018054600181600116156101000203166002900480601f016020809104026020016040519081016040528092919081815260200182805460018160011615610100020316600290048015610fc15780601f10610f9657610100808354040283529160200191610fc1565b820191906000526020600020905b815481529060010190602001808311610fa457829003601f168201915b50505050508152602001600382018054600181600116156101000203166002900480601f0160208091040260200160405190810160405280929190818152602001828054600181600116156101000203166002900480156110635780601f1061103857610100808354040283529160200191611063565b820191906000526020600020905b81548152906001019060200180831161104657829003601f168201915b505050505081526020016004820154815260200160058201548152602001600682015481526020016007820160009054906101000a900460ff161515151581526020016007820160019054906101000a900460ff1615151515815250509150816101000151156110d6576000965061123c565b610120604051908101604052808481526020013373ffffffffffffffffffffffffffffffffffffffff1681526020018c81526020018b81526020018a81526020018981526020016000815260200160001515815260200160011515815250905080600160008581526020019081526020016000206000820151816000015560208201518160010160006101000a81548173ffffffffffffffffffffffffffffffffffffffff021916908373ffffffffffffffffffffffffffffffffffffffff16021790555060408201518160020190805190602001906111b7929190611f8d565b5060608201518160030190805190602001906111d4929190611f8d565b506080820151816004015560a0820151816005015560c0820151816006015560e08201518160070160006101000a81548160ff0219169083151502179055506101008201518160070160016101000a81548160ff021916908315150217905550905050600196505b50505050505095945050505050565b60006001600083815260200190815260200160002060070160019054906101000a900460ff16151561127c57600080fd5b6001600083815260200190815260200160002060010160009054906101000a900473ffffffffffffffffffffffffffffffffffffffff169050919050565b813373ffffffffffffffffffffffffffffffffffffffff166001600083815260200190815260200160002060010160009054906101000a900473ffffffffffffffffffffffffffffffffffffffff1673ffffffffffffffffffffffffffffffffffffffff1614151561132b57600080fd5b816001600085815260200190815260200160002060060181905550505050565b813373ffffffffffffffffffffffffffffffffffffffff166001600083815260200190815260200160002060010160009054906101000a900473ffffffffffffffffffffffffffffffffffffffff1673ffffffffffffffffffffffffffffffffffffffff161415156113bc57600080fd5b816001600085815260200190815260200160002060070160006101000a81548160ff021916908315150217905550505050565b6113f761204e565b600160008381526020019081526020016000206101206040519081016040529081600082015481526020016001820160009054906101000a900473ffffffffffffffffffffffffffffffffffffffff1673ffffffffffffffffffffffffffffffffffffffff1673ffffffffffffffffffffffffffffffffffffffff168152602001600282018054600181600116156101000203166002900480601f0160208091040260200160405190810160405280929190818152602001828054600181600116156101000203166002900480156115105780601f106114e557610100808354040283529160200191611510565b820191906000526020600020905b8154815290600101906020018083116114f357829003601f168201915b50505050508152602001600382018054600181600116156101000203166002900480601f0160208091040260200160405190810160405280929190818152602001828054600181600116156101000203166002900480156115b25780601f10611587576101008083540402835291602001916115b2565b820191906000526020600020905b81548152906001019060200180831161159557829003601f168201915b505050505081526020016004820154815260200160058201548152602001600682015481526020016007820160009054906101000a900460ff161515151581526020016007820160019054906101000a900460ff1615151515815250509050806101000151151561162257600080fd5b8060e00151151561163257600080fd5b8060c001513414151561164457600080fd5b806020015173ffffffffffffffffffffffffffffffffffffffff163373ffffffffffffffffffffffffffffffffffffffff161415151561168357600080fd5b61168d8233611e21565b5050565b61169a8161124b565b73ffffffffffffffffffffffffffffffffffffffff163373ffffffffffffffffffffffffffffffffffffffff161415156116d357600080fd5b6001600082815260200190815260200160002060070160019054906101000a900460ff16151561170257600080fd5b60008273ffffffffffffffffffffffffffffffffffffffff161415151561172857600080fd5b5050565b6002600082815260200190815260200160002060010160149054906101000a900460ff16151561175b57600080fd5b3373ffffffffffffffffffffffffffffffffffffffff166002600083815260200190815260200160002060010160009054906101000a900473ffffffffffffffffffffffffffffffffffffffff1673ffffffffffffffffffffffffffffffffffffffff161415156117cb57600080fd5b6117d48161124b565b73ffffffffffffffffffffffffffffffffffffffff163373ffffffffffffffffffffffffffffffffffffffff161415151561180e57600080fd5b3373ffffffffffffffffffffffffffffffffffffffff166002600083815260200190815260200160002060000160009054906101000a900473ffffffffffffffffffffffffffffffffffffffff1673ffffffffffffffffffffffffffffffffffffffff167fddf252ad1be2c89b69c2b068fc378daa952ba7f163c4a11628f55a4df523b3ef836040518082815260200191505060405180910390a3336001600083815260200190815260200160002060010160006101000a81548173ffffffffffffffffffffffffffffffffffffffff021916908373ffffffffffffffffffffffffffffffffffffffff16021790555060006002600083815260200190815260200160002060010160146101000a81548160ff02191690831515021790555060006002600083815260200190815260200160002060010160006101000a81548173ffffffffffffffffffffffffffffffffffffffff021916908373ffffffffffffffffffffffffffffffffffffffff16021790555060006002600083815260200190815260200160002060000160006101000a81548173ffffffffffffffffffffffffffffffffffffffff021916908373ffffffffffffffffffffffffffffffffffffffff16021790555050565b600360009054906101000a900473ffffffffffffffffffffffffffffffffffffffff1681565b600060608060008060606000611a1661204e565b611a39611a228a611d71565b611a2b8c611d71565b611d9f90919063ffffffff16565b9250826040516020018082805190602001908083835b602083101515611a745780518252602082019150602081019050602083039250611a4f565b6001836020036101000a0380198251168184511680821785525050505050509050019150506040516020818303038152906040526040518082805190602001908083835b602083101515611add5780518252602082019150602081019050602083039250611ab8565b6001836020036101000a0380198251168184511680821785525050505050509050019150506040518091039020600190049150600160008381526020019081526020016000206101206040519081016040529081600082015481526020016001820160009054906101000a900473ffffffffffffffffffffffffffffffffffffffff1673ffffffffffffffffffffffffffffffffffffffff1673ffffffffffffffffffffffffffffffffffffffff168152602001600282018054600181600116156101000203166002900480601f016020809104026020016040519081016040528092919081815260200182805460018160011615610100020316600290048015611c295780601f10611bfe57610100808354040283529160200191611c29565b820191906000526020600020905b815481529060010190602001808311611c0c57829003601f168201915b50505050508152602001600382018054600181600116156101000203166002900480601f016020809104026020016040519081016040528092919081815260200182805460018160011615610100020316600290048015611ccb5780601f10611ca057610100808354040283529160200191611ccb565b820191906000526020600020905b815481529060010190602001808311611cae57829003601f168201915b505050505081526020016004820154815260200160058201548152602001600682015481526020016007820160009054906101000a900460ff161515151581526020016007820160019054906101000a900460ff161515151581525050905080610100015115611d635780600001518160400151826060015183608001518460a0015183935082925097509750975097509750611d64565b5b5050509295509295909350565b611d796120b5565b600060208301905060408051908101604052808451815260200182815250915050919050565b606080600083600001518560000151016040519080825280601f01601f191660200182016040528015611de15781602001602082028038833980820191505090505b509150602082019050611dfd8186602001518760000151611f42565b611e168560000151820185602001518660000151611f42565b819250505092915050565b60006001600084815260200190815260200160002060010160009054906101000a900473ffffffffffffffffffffffffffffffffffffffff169050816001600085815260200190815260200160002060010160006101000a81548173ffffffffffffffffffffffffffffffffffffffff021916908373ffffffffffffffffffffffffffffffffffffffff16021790555060006001600085815260200190815260200160002060070160006101000a81548160ff0219169083151502179055508073ffffffffffffffffffffffffffffffffffffffff166108fc60016000868152602001908152602001600020600601549081150290604051600060405180830381858888f19350505050158015611f3c573d6000803e3d6000fd5b50505050565b60005b602082101515611f6a5782518452602084019350602083019250602082039150611f45565b6001826020036101000a0390508019835116818551168181178652505050505050565b828054600181600116156101000203166002900490600052602060002090601f016020900481019282601f10611fce57805160ff1916838001178555611ffc565b82800160010185558215611ffc579182015b82811115611ffb578251825591602001919060010190611fe0565b5b50905061200991906120cf565b5090565b608060405190810160405280600073ffffffffffffffffffffffffffffffffffffffff16815260200160608152602001606081526020016000151581525090565b6101206040519081016040528060008152602001600073ffffffffffffffffffffffffffffffffffffffff16815260200160608152602001606081526020016000815260200160008152602001600081526020016000151581526020016000151581525090565b604080519081016040528060008152602001600081525090565b6120f191905b808211156120ed5760008160009055506001016120d5565b5090565b905600a165627a7a72305820a5895ea65de0790ff72d5d04515bba4a770dfc55e007f451581051bee55fea200029",
  "source": "pragma solidity ^0.4.18;\n\nimport \"./lib/strings.sol\";\n\ncontract KennelPedigrees {\n  using strings for *;\n\n  struct Kennel {\n    address kennelAddress;\n    string name;\n    string id;\n    bool exists;\n  }\n\n  struct Dog {\n    uint256 dogId; // id kennel + id dog\n    address owner;\n    string breed;\n    string name;\n    uint256 fatherId;\n    uint256 motherId;\n    uint256 price;\n    bool onSale;\n    bool exists;\n  }\n\n  struct ApprovalStruct {\n    address owner;\n    address recipient;\n    bool exists;\n  }\n\n\tmapping (address => Kennel) kennels;\n  mapping (uint256 => Dog) dogs;\n  mapping (uint256 => ApprovalStruct) internal approvals;\n\n  address public contractOwner;\n\n  event Approval(address owner, address to, uint256 tokenId);\n\n  event Transfer(address indexed _from, address indexed _to, uint256 _tokenId);\n\n  constructor() public {\n    contractOwner = msg.sender;\n  }\n\n  modifier onlyContractOwner() {\n    require(msg.sender == contractOwner);\n    _;\n  }\n\n  modifier onlyKennels() {\n    require(kennels[msg.sender].exists);\n    _;\n  }\n\n  modifier onlyDogOwner(uint256 dogId){\n    require(dogs[dogId].owner == msg.sender);\n    _;\n  }\n\n  function setDogPrice(uint256 dogId, uint256 price) public onlyDogOwner(dogId){\n    dogs[dogId].price = price;\n  }\n\n  function setDogOnSale(uint256 dogId, bool onSale) public onlyDogOwner(dogId){\n    dogs[dogId].onSale = onSale;\n  }\n\n  function buyDog(uint256 dogId) public payable {\n    Dog memory dog = dogs[dogId];\n    require(dog.exists);\n    require(dog.onSale);\n    require(msg.value == dog.price);\n    require(msg.sender != dog.owner);\n\n    _transferAndPayDog(dogId, msg.sender);\n\n  }\n\n  function _transferAndPayDog(uint256 dogId, address newOwner ) internal {\n    address pastOwner = dogs[dogId].owner;\n    dogs[dogId].owner = newOwner;\n    dogs[dogId].onSale = false;\n    pastOwner.transfer(dogs[dogId].price);\n  }\n\n  function addKennel(address kennelAddress, string name, string id) public onlyContractOwner() returns(bool) {\n    if (kennels[kennelAddress].exists) {\n      return false;\n    } else {\n      kennels[kennelAddress] = Kennel(kennelAddress, name, id, true);\n      return true;\n    }\n  }\n\n  function addDog(string dogId, string breed, string name, uint256 fatherId, uint256 motherId) public onlyKennels() returns(bool) {\n    Kennel memory kennel = kennels[msg.sender];\n    string memory kennelId = kennel.id;\n    string memory joinedId = kennelId.toSlice().concat(dogId.toSlice());\n    uint256 joinedIdInt = uint256(keccak256(abi.encodePacked(joinedId)));\n    Dog memory dog = dogs[joinedIdInt];\n    if (dog.exists) {\n      return false;\n    } else {\n      Dog memory newDog = Dog(joinedIdInt, msg.sender,  breed, name, fatherId, motherId, 0, false, true);\n      dogs[joinedIdInt] = newDog;\n      return true;\n    }\n  }\n\n  function searchDog(string kennelId, string dogId) public view returns(uint256, string, string, uint256, uint256) {\n    string memory joinedId = kennelId.toSlice().concat(dogId.toSlice());\n    uint256 joinedIdInt = uint256(keccak256(abi.encodePacked(joinedId)));\n    Dog memory dog = dogs[joinedIdInt];\n    if (dog.exists) {\n      return (dog.dogId, dog.breed, dog.name, dog.fatherId, dog.motherId);\n    } else {\n      /* doggo no existe */\n      return;\n    }\n  }\n\n\n  // ERC-721\n  /* function totalSupply() public constant returns (uint256) { */\n    // Guardar un array de los doggos ids, y retornar el length.\n    /* return dogs; */\n  /* } */\n\n  /* function balanceOf(address _owner) public constant returns (uint256 balance){ */\n    // iterar en el doggo array y fijarse si el address\n    // es igual que el _owner y retornar un count.\n  /* } */\n\n  function ownerOf(uint256 _dogId) public constant returns (address){\n     require(dogs[_dogId].exists);\n     return dogs[_dogId].owner;\n  }\n\n  function approve(address _to, uint256 _dogId) public {\n    address owner = ownerOf(_dogId);\n\n    require(msg.sender == owner); // Sender is owner of doggo\n    require(dogs[_dogId].exists); // Dog with _dogId exists.\n    require(msg.sender != _to); // Sender is recipient\n\n    if (_to != address(0)) {\n      approvals[_dogId].owner = owner;\n      approvals[_dogId].recipient = _to;\n      approvals[_dogId].exists = true;\n\n    } else {\n      if(!approvals[_dogId].exists){\n        return;\n      }\n      approvals[_dogId].exists = false;\n    }\n    emit Approval(owner, _to, _dogId);\n\n  }\n\n  function takeOwnership(uint256 _dogId) public {\n    require(approvals[_dogId].exists); // Approval for doggo od _dogId exists\n    require(approvals[_dogId].recipient == msg.sender); // Recipient of approval for doggo of _dogId is the sender\n    require(msg.sender != ownerOf(_dogId)); // Sender is not the owner of doggo\n\n    emit Transfer(approvals[_dogId].owner, msg.sender, _dogId);\n\n    dogs[_dogId].owner = msg.sender;\n    approvals[_dogId].exists = false;\n    approvals[_dogId].recipient = address(0); // correct?\n    approvals[_dogId].owner = address(0); //correct?\n  }\n\n  function transfer(address _to, uint256 _tokenId) public view {\n    require(msg.sender == ownerOf(_tokenId));\n    require(dogs[_tokenId].exists);\n    require(_to != 0);\n\n  }\n}\n",
  "sourcePath": "/Users/luisandresgurmendez/Desktop/UM/BlockChain/contracts/KennelPedregrees.sol",
  "compiler": {
    "name": "solc",
    "version": "0.4.23+commit.124ca40d.Emscripten.clang"
  },
  "schemaVersion": "2.0.0",
  "updatedAt": "2018-06-21T20:16:11.012Z"
}